{
  "contractName": "Faucet",
  "abi": [
    {
      "stateMutability": "payable",
      "type": "receive",
      "payable": true
    },
    {
      "inputs": [],
      "name": "addFunds",
      "outputs": [],
      "stateMutability": "payable",
      "type": "function",
      "payable": true
    },
    {
      "inputs": [],
      "name": "getAllDonators",
      "outputs": [
        {
          "internalType": "address[]",
          "name": "",
          "type": "address[]"
        }
      ],
      "stateMutability": "view",
      "type": "function",
      "constant": true
    },
    {
      "inputs": [
        {
          "internalType": "uint8",
          "name": "index",
          "type": "uint8"
        }
      ],
      "name": "getDonatorAtIndex",
      "outputs": [
        {
          "internalType": "address",
          "name": "",
          "type": "address"
        }
      ],
      "stateMutability": "view",
      "type": "function",
      "constant": true
    }
  ],
  "bytecode": "0x608060405234801561001057600080fd5b506103d6806100206000396000f3fe6080604052600436106100385760003560e01c8063313d76a81461004457806385aae38214610081578063a26759cb146100ac5761003f565b3661003f57005b600080fd5b34801561005057600080fd5b5061006b60048036038101906100669190610217565b6100b6565b60405161007891906102d4565b60405180910390f35b34801561008d57600080fd5b5061009661010f565b6040516100a391906102ef565b60405180910390f35b6100b461019d565b005b6000806100c161010f565b9050808360ff16815181106100ff577f4e487b7100000000000000000000000000000000000000000000000000000000600052603260045260246000fd5b6020026020010151915050919050565b6060600080548060200260200160405190810160405280929190818152602001828054801561019357602002820191906000526020600020905b8160009054906101000a900473ffffffffffffffffffffffffffffffffffffffff1673ffffffffffffffffffffffffffffffffffffffff1681526020019060010190808311610149575b5050505050905090565b6000339080600181540180825580915050600190039060005260206000200160009091909190916101000a81548173ffffffffffffffffffffffffffffffffffffffff021916908373ffffffffffffffffffffffffffffffffffffffff160217905550565b60008135905061021181610389565b92915050565b60006020828403121561022957600080fd5b600061023784828501610202565b91505092915050565b600061024c8383610258565b60208301905092915050565b6102618161034a565b82525050565b6102708161034a565b82525050565b600061028182610321565b61028b8185610339565b935061029683610311565b8060005b838110156102c75781516102ae8882610240565b97506102b98361032c565b92505060018101905061029a565b5085935050505092915050565b60006020820190506102e96000830184610267565b92915050565b600060208201905081810360008301526103098184610276565b905092915050565b6000819050602082019050919050565b600081519050919050565b6000602082019050919050565b600082825260208201905092915050565b60006103558261035c565b9050919050565b600073ffffffffffffffffffffffffffffffffffffffff82169050919050565b600060ff82169050919050565b6103928161037c565b811461039d57600080fd5b5056fea2646970667358221220e8c77347c66c64ada969ac74ebc7ee356ba71831aa62e43063c81d61c74f6a8264736f6c63430008040033",
  "immutableReferences": {},
  "source": "// SPDX-License-Identifier: MIT\r\npragma solidity >=0.4.22 <0.9.0; \r\n\r\ncontract Faucet {\r\n   // create array of addresses to store donators\r\n   address[] private donators;\r\n\r\n   // allows the contract to receive ether\r\n   receive() external payable {}\r\n\r\n   // this function allows funds to be sent to the smart contract\r\n   function addFunds() external payable {\r\n      // add the address of donator to array\r\n      donators.push(msg.sender);\r\n   }\r\n\r\n   // this function returns the current list/array of donators\r\n   function getAllDonators() public view returns (address[] memory) {\r\n      return donators;\r\n   }\r\n\r\n   function getDonatorAtIndex(uint8 index) external view returns (address) {\r\n         address[] memory _donators = getAllDonators();\r\n         return _donators[index];\r\n   }  \r\n}\r\n\r\n",
  "sourcePath": "C:\\Users\\rodri\\Solidity\\solidity\\faucet\\contracts\\FaucetContract.sol",
  "compiler": {
    "name": "solc",
    "version": "0.8.4+commit.c7e474f2.Emscripten.clang"
  },
  "schemaVersion": "3.4.3",
  "updatedAt": "2022-02-09T03:18:16.845Z",
  "networkType": "ethereum",
  "devdoc": {
    "kind": "dev",
    "methods": {},
    "version": 1
  },
  "userdoc": {
    "kind": "user",
    "methods": {},
    "version": 1
  }
}