{
  "contractName": "Faucet",
  "abi": [
    {
      "inputs": [],
      "name": "numOfDonators",
      "outputs": [
        {
          "internalType": "uint256",
          "name": "",
          "type": "uint256"
        }
      ],
      "stateMutability": "view",
      "type": "function",
      "constant": true
    },
    {
      "stateMutability": "payable",
      "type": "receive",
      "payable": true
    },
    {
      "inputs": [],
      "name": "addFunds",
      "outputs": [],
      "stateMutability": "payable",
      "type": "function",
      "payable": true
    },
    {
      "inputs": [],
      "name": "getAllDonators",
      "outputs": [
        {
          "internalType": "address[]",
          "name": "",
          "type": "address[]"
        }
      ],
      "stateMutability": "view",
      "type": "function",
      "constant": true
    },
    {
      "inputs": [
        {
          "internalType": "uint8",
          "name": "index",
          "type": "uint8"
        }
      ],
      "name": "getDonatorAtIndex",
      "outputs": [
        {
          "internalType": "address",
          "name": "",
          "type": "address"
        }
      ],
      "stateMutability": "view",
      "type": "function",
      "constant": true
    }
  ],
  "bytecode": "0x608060405234801561001057600080fd5b50610615806100206000396000f3fe6080604052600436106100435760003560e01c8063313d76a81461004f5780636a471cb11461008c57806385aae382146100b7578063a26759cb146100e25761004a565b3661004a57005b600080fd5b34801561005b57600080fd5b50610076600480360381019061007191906103aa565b6100ec565b6040516100839190610476565b60405180910390f35b34801561009857600080fd5b506100a161012c565b6040516100ae91906104b3565b60405180910390f35b3480156100c357600080fd5b506100cc610132565b6040516100d99190610491565b60405180910390f35b6100ea610277565b005b6000600260008360ff16815260200190815260200160002060009054906101000a900473ffffffffffffffffffffffffffffffffffffffff169050919050565b60005481565b60606000805467ffffffffffffffff811115610177577f4e487b7100000000000000000000000000000000000000000000000000000000600052604160045260246000fd5b6040519080825280602002602001820160405280156101a55781602001602082028036833780820191505090505b50905060005b60005481101561026f576002600082815260200190815260200160002060009054906101000a900473ffffffffffffffffffffffffffffffffffffffff16828281518110610222577f4e487b7100000000000000000000000000000000000000000000000000000000600052603260045260246000fd5b602002602001019073ffffffffffffffffffffffffffffffffffffffff16908173ffffffffffffffffffffffffffffffffffffffff1681525050808061026790610550565b9150506101ab565b508091505090565b6000339050600160008273ffffffffffffffffffffffffffffffffffffffff1673ffffffffffffffffffffffffffffffffffffffff16815260200190815260200160002060009054906101000a900460ff166103925760008060008154809291906102e190610550565b91905055905060018060008473ffffffffffffffffffffffffffffffffffffffff1673ffffffffffffffffffffffffffffffffffffffff16815260200190815260200160002060006101000a81548160ff021916908315150217905550816002600083815260200190815260200160002060006101000a81548173ffffffffffffffffffffffffffffffffffffffff021916908373ffffffffffffffffffffffffffffffffffffffff160217905550505b50565b6000813590506103a4816105c8565b92915050565b6000602082840312156103bc57600080fd5b60006103ca84828501610395565b91505092915050565b60006103df83836103eb565b60208301905092915050565b6103f481610507565b82525050565b61040381610507565b82525050565b6000610414826104de565b61041e81856104f6565b9350610429836104ce565b8060005b8381101561045a57815161044188826103d3565b975061044c836104e9565b92505060018101905061042d565b5085935050505092915050565b61047081610539565b82525050565b600060208201905061048b60008301846103fa565b92915050565b600060208201905081810360008301526104ab8184610409565b905092915050565b60006020820190506104c86000830184610467565b92915050565b6000819050602082019050919050565b600081519050919050565b6000602082019050919050565b600082825260208201905092915050565b600061051282610519565b9050919050565b600073ffffffffffffffffffffffffffffffffffffffff82169050919050565b6000819050919050565b600060ff82169050919050565b600061055b82610539565b91507fffffffffffffffffffffffffffffffffffffffffffffffffffffffffffffffff82141561058e5761058d610599565b5b600182019050919050565b7f4e487b7100000000000000000000000000000000000000000000000000000000600052601160045260246000fd5b6105d181610543565b81146105dc57600080fd5b5056fea2646970667358221220dda08882c25f13c951bda85096949795ccbd1b6b544a1d50f6815106f102723564736f6c63430008040033",
  "immutableReferences": {},
  "source": "// SPDX-License-Identifier: MIT\r\npragma solidity >=0.4.22 <0.9.0; \r\n\r\ncontract Faucet {\r\n\r\n   uint public numOfDonators;\r\n   // create mapping to store addresses of donators\r\n   // key => value\r\n   mapping(address => bool) private donators;\r\n   mapping(uint => address) private lutDonators;\r\n\r\n   // allows the contract to receive ether\r\n   receive() external payable {}\r\n\r\n   // this function allows funds to be sent to the smart contract\r\n   function addFunds() external payable {\r\n      // create mapping of donator's address\r\n      address donator = msg.sender;\r\n      if (!donators[donator]) {\r\n         uint index = numOfDonators++;\r\n         donators[donator] = true; \r\n         lutDonators[index] = donator;\r\n      }\r\n   }\r\n\r\n   // this function returns an array of all donator's addresses\r\n   function getAllDonators() external view returns (address [] memory) {\r\n      // create new array to store addresses\r\n      address[] memory _donators = new address[](numOfDonators);\r\n      // loop through our keys and values, store addresses (values) in array\r\n      for (uint i =0; i < numOfDonators; i++) {\r\n         _donators[i] = lutDonators[i];\r\n      }\r\n      return _donators;\r\n   }   \r\n\r\n   // returns the donator's address at a specified index\r\n   function getDonatorAtIndex(uint8 index) external view returns (address) {\r\n         return lutDonators[index];\r\n   }  \r\n}\r\n\r\n",
  "sourcePath": "C:\\Users\\rodri\\Solidity\\solidity\\faucet\\contracts\\FaucetContract.sol",
  "compiler": {
    "name": "solc",
    "version": "0.8.4+commit.c7e474f2.Emscripten.clang"
  },
  "schemaVersion": "3.4.3",
  "updatedAt": "2022-02-10T04:25:20.974Z",
  "networkType": "ethereum",
  "devdoc": {
    "kind": "dev",
    "methods": {},
    "version": 1
  },
  "userdoc": {
    "kind": "user",
    "methods": {},
    "version": 1
  }
}