{
  "contractName": "Faucet",
  "abi": [
    {
      "inputs": [],
      "name": "numOfDonators",
      "outputs": [
        {
          "internalType": "uint256",
          "name": "",
          "type": "uint256"
        }
      ],
      "stateMutability": "view",
      "type": "function",
      "constant": true
    },
    {
      "inputs": [],
      "name": "owner",
      "outputs": [
        {
          "internalType": "address",
          "name": "",
          "type": "address"
        }
      ],
      "stateMutability": "view",
      "type": "function",
      "constant": true
    },
    {
      "inputs": [],
      "name": "test3",
      "outputs": [
        {
          "internalType": "uint256",
          "name": "",
          "type": "uint256"
        }
      ],
      "stateMutability": "pure",
      "type": "function",
      "constant": true
    },
    {
      "inputs": [],
      "name": "testNum",
      "outputs": [
        {
          "internalType": "uint256",
          "name": "",
          "type": "uint256"
        }
      ],
      "stateMutability": "view",
      "type": "function",
      "constant": true
    },
    {
      "stateMutability": "payable",
      "type": "receive",
      "payable": true
    },
    {
      "inputs": [],
      "name": "emitLog",
      "outputs": [
        {
          "internalType": "bytes32",
          "name": "",
          "type": "bytes32"
        }
      ],
      "stateMutability": "pure",
      "type": "function",
      "constant": true
    },
    {
      "inputs": [],
      "name": "addFunds",
      "outputs": [],
      "stateMutability": "payable",
      "type": "function",
      "payable": true
    },
    {
      "inputs": [
        {
          "internalType": "uint256",
          "name": "withdrawAmount",
          "type": "uint256"
        }
      ],
      "name": "withdraw",
      "outputs": [],
      "stateMutability": "nonpayable",
      "type": "function"
    },
    {
      "inputs": [],
      "name": "getAllDonators",
      "outputs": [
        {
          "internalType": "address[]",
          "name": "",
          "type": "address[]"
        }
      ],
      "stateMutability": "view",
      "type": "function",
      "constant": true
    },
    {
      "inputs": [
        {
          "internalType": "uint8",
          "name": "index",
          "type": "uint8"
        }
      ],
      "name": "getDonatorAtIndex",
      "outputs": [
        {
          "internalType": "address",
          "name": "",
          "type": "address"
        }
      ],
      "stateMutability": "view",
      "type": "function",
      "constant": true
    }
  ],
  "bytecode": "0x608060405234801561001057600080fd5b50336000806101000a81548173ffffffffffffffffffffffffffffffffffffffff021916908373ffffffffffffffffffffffffffffffffffffffff1602179055506103e8600181905550610952806100696000396000f3fe60806040526004361061008a5760003560e01c806385aae3821161005957806385aae382146101525780638da5cb5b1461017d578063a26759cb146101a8578063ae28f1ed146101b2578063f42c13bf146101dd57610091565b80630a8e8e01146100965780632e1a7d4d146100c1578063313d76a8146100ea5780636a471cb11461012757610091565b3661009157005b600080fd5b3480156100a257600080fd5b506100ab610208565b6040516100b8919061076f565b60405180910390f35b3480156100cd57600080fd5b506100e860048036038101906100e391906105d0565b610211565b005b3480156100f657600080fd5b50610111600480360381019061010c91906105f9565b6102a8565b60405161011e91906106f7565b60405180910390f35b34801561013357600080fd5b5061013c6102e8565b604051610149919061076f565b60405180910390f35b34801561015e57600080fd5b506101676102ee565b6040516101749190610712565b60405180910390f35b34801561018957600080fd5b50610192610434565b60405161019f91906106f7565b60405180910390f35b6101b0610458565b005b3480156101be57600080fd5b506101c7610578565b6040516101d4919061076f565b60405180910390f35b3480156101e957600080fd5b506101f261057e565b6040516101ff9190610734565b60405180910390f35b60006064905090565b8067016345785d8a000081111561025d576040517f08c379a00000000000000000000000000000000000000000000000000000000081526004016102549061074f565b60405180910390fd5b3373ffffffffffffffffffffffffffffffffffffffff166108fc839081150290604051600060405180830381858888f193505050501580156102a3573d6000803e3d6000fd5b505050565b6000600460008360ff16815260200190815260200160002060009054906101000a900473ffffffffffffffffffffffffffffffffffffffff169050919050565b60025481565b6060600060025467ffffffffffffffff811115610334577f4e487b7100000000000000000000000000000000000000000000000000000000600052604160045260246000fd5b6040519080825280602002602001820160405280156103625781602001602082028036833780820191505090505b50905060005b60025481101561042c576004600082815260200190815260200160002060009054906101000a900473ffffffffffffffffffffffffffffffffffffffff168282815181106103df577f4e487b7100000000000000000000000000000000000000000000000000000000600052603260045260246000fd5b602002602001019073ffffffffffffffffffffffffffffffffffffffff16908173ffffffffffffffffffffffffffffffffffffffff1681525050808061042490610827565b915050610368565b508091505090565b60008054906101000a900473ffffffffffffffffffffffffffffffffffffffff1681565b6000339050600360008273ffffffffffffffffffffffffffffffffffffffff1673ffffffffffffffffffffffffffffffffffffffff16815260200190815260200160002060009054906101000a900460ff16610575576000600260008154809291906104c390610827565b9190505590506001600360008473ffffffffffffffffffffffffffffffffffffffff1673ffffffffffffffffffffffffffffffffffffffff16815260200190815260200160002060006101000a81548160ff021916908315150217905550816004600083815260200190815260200160002060006101000a81548173ffffffffffffffffffffffffffffffffffffffff021916908373ffffffffffffffffffffffffffffffffffffffff160217905550505b50565b60015481565b60007f48656c6c6f20576f726c64000000000000000000000000000000000000000000905090565b6000813590506105b5816108ee565b92915050565b6000813590506105ca81610905565b92915050565b6000602082840312156105e257600080fd5b60006105f0848285016105a6565b91505092915050565b60006020828403121561060b57600080fd5b6000610619848285016105bb565b91505092915050565b600061062e838361063a565b60208301905092915050565b610643816107d4565b82525050565b610652816107d4565b82525050565b60006106638261079a565b61066d81856107b2565b93506106788361078a565b8060005b838110156106a95781516106908882610622565b975061069b836107a5565b92505060018101905061067c565b5085935050505092915050565b6106bf816107e6565b82525050565b60006106d26022836107c3565b91506106dd8261089f565b604082019050919050565b6106f181610810565b82525050565b600060208201905061070c6000830184610649565b92915050565b6000602082019050818103600083015261072c8184610658565b905092915050565b600060208201905061074960008301846106b6565b92915050565b60006020820190508181036000830152610768816106c5565b9050919050565b600060208201905061078460008301846106e8565b92915050565b6000819050602082019050919050565b600081519050919050565b6000602082019050919050565b600082825260208201905092915050565b600082825260208201905092915050565b60006107df826107f0565b9050919050565b6000819050919050565b600073ffffffffffffffffffffffffffffffffffffffff82169050919050565b6000819050919050565b600060ff82169050919050565b600061083282610810565b91507fffffffffffffffffffffffffffffffffffffffffffffffffffffffffffffffff82141561086557610864610870565b5b600182019050919050565b7f4e487b7100000000000000000000000000000000000000000000000000000000600052601160045260246000fd5b7f43616e6e6f74207769746864726177206d6f7265207468616e202e312065746860008201527f6572000000000000000000000000000000000000000000000000000000000000602082015250565b6108f781610810565b811461090257600080fd5b50565b61090e8161081a565b811461091957600080fd5b5056fea26469706673582212206d5764461ffdbc754e08d9a3ef53b8cae170d40f95a417e09420b0ad8dbfc0ab64736f6c63430008040033",
  "immutableReferences": {},
  "source": "// SPDX-License-Identifier: MIT\r\npragma solidity >=0.4.22 <0.9.0; \r\n\r\nimport \"./Owned.sol\";\r\nimport \"./Logger.sol\";\r\n\r\ncontract Faucet is Owned, Logger {\r\n   uint public numOfDonators;\r\n   // create mapping to store addresses of donators\r\n   // key => value\r\n   mapping(address => bool) private donators;\r\n   mapping(uint => address) private lutDonators;\r\n\r\n   // this modifier limits amount that is able to be withdrawn every tx (.1 eth)\r\n   modifier limitWithdraw(uint withdrawAmount) {\r\n      require(\r\n         withdrawAmount <= 100000000000000000,\r\n         \"Cannot withdraw more than .1 ether\"\r\n      );\r\n      _;\r\n   }\r\n\r\n   // allows the contract to receive ether\r\n   receive() external payable {}\r\n\r\n   function emitLog() public override pure returns(bytes32) {\r\n      return \"Hello World\";\r\n   }\r\n\r\n   // this function allows funds to be sent to the smart contract\r\n   function addFunds() external payable {\r\n      // create mapping of donator's address\r\n      address donator = msg.sender;\r\n      if (!donators[donator]) {\r\n         uint index = numOfDonators++;\r\n         donators[donator] = true; \r\n         lutDonators[index] = donator;\r\n      }\r\n   }\r\n\r\n   // this function withdraws from the smart contract with a limit of .1 eth per transaction\r\n   function withdraw(uint withdrawAmount) external limitWithdraw(withdrawAmount) {\r\n         payable(msg.sender).transfer(withdrawAmount);\r\n   }\r\n\r\n   // this function returns an array of all donator's addresses\r\n   function getAllDonators() external view returns (address [] memory) {\r\n      // create new array to store addresses\r\n      address[] memory _donators = new address[](numOfDonators);\r\n      // loop through our keys and values, store addresses (values) in array\r\n      for (uint i =0; i < numOfDonators; i++) {\r\n         _donators[i] = lutDonators[i];\r\n      }\r\n      return _donators;\r\n   }   \r\n\r\n   // returns the donator's address at a specified index\r\n   function getDonatorAtIndex(uint8 index) external view returns (address) {\r\n         return lutDonators[index];\r\n   }  \r\n}\r\n\r\n",
  "sourcePath": "C:\\Users\\rodri\\Solidity\\solidity\\faucet\\contracts\\FaucetContract.sol",
  "compiler": {
    "name": "solc",
    "version": "0.8.4+commit.c7e474f2.Emscripten.clang"
  },
  "schemaVersion": "3.4.3",
  "updatedAt": "2022-02-11T05:19:41.059Z",
  "networkType": "ethereum",
  "devdoc": {
    "kind": "dev",
    "methods": {},
    "version": 1
  },
  "userdoc": {
    "kind": "user",
    "methods": {},
    "version": 1
  }
}