{
  "contractName": "Faucet",
  "abi": [
    {
      "inputs": [],
      "name": "numOfDonators",
      "outputs": [
        {
          "internalType": "uint256",
          "name": "",
          "type": "uint256"
        }
      ],
      "stateMutability": "view",
      "type": "function"
    },
    {
      "inputs": [],
      "name": "owner",
      "outputs": [
        {
          "internalType": "address",
          "name": "",
          "type": "address"
        }
      ],
      "stateMutability": "view",
      "type": "function"
    },
    {
      "inputs": [],
      "name": "testNum",
      "outputs": [
        {
          "internalType": "uint256",
          "name": "",
          "type": "uint256"
        }
      ],
      "stateMutability": "view",
      "type": "function"
    },
    {
      "stateMutability": "payable",
      "type": "receive"
    },
    {
      "inputs": [],
      "name": "emitLog",
      "outputs": [
        {
          "internalType": "bytes32",
          "name": "",
          "type": "bytes32"
        }
      ],
      "stateMutability": "pure",
      "type": "function"
    },
    {
      "inputs": [],
      "name": "addFunds",
      "outputs": [],
      "stateMutability": "payable",
      "type": "function"
    },
    {
      "inputs": [
        {
          "internalType": "uint256",
          "name": "withdrawAmount",
          "type": "uint256"
        }
      ],
      "name": "withdraw",
      "outputs": [],
      "stateMutability": "nonpayable",
      "type": "function"
    },
    {
      "inputs": [],
      "name": "getAllDonators",
      "outputs": [
        {
          "internalType": "address[]",
          "name": "",
          "type": "address[]"
        }
      ],
      "stateMutability": "view",
      "type": "function"
    },
    {
      "inputs": [
        {
          "internalType": "uint8",
          "name": "index",
          "type": "uint8"
        }
      ],
      "name": "getDonatorAtIndex",
      "outputs": [
        {
          "internalType": "address",
          "name": "",
          "type": "address"
        }
      ],
      "stateMutability": "view",
      "type": "function"
    }
  ],
  "bytecode": "0x608060405234801561001057600080fd5b50336000806101000a81548173ffffffffffffffffffffffffffffffffffffffff021916908373ffffffffffffffffffffffffffffffffffffffff1602179055506103e8600181905550610913806100696000396000f3fe60806040526004361061007f5760003560e01c80638da5cb5b1161004e5780638da5cb5b14610147578063a26759cb14610172578063ae28f1ed1461017c578063f42c13bf146101a757610086565b80632e1a7d4d1461008b578063313d76a8146100b45780636a471cb1146100f157806385aae3821461011c57610086565b3661008657005b600080fd5b34801561009757600080fd5b506100b260048036038101906100ad9190610591565b6101d2565b005b3480156100c057600080fd5b506100db60048036038101906100d691906105ba565b610269565b6040516100e891906106b8565b60405180910390f35b3480156100fd57600080fd5b506101066102a9565b6040516101139190610730565b60405180910390f35b34801561012857600080fd5b506101316102af565b60405161013e91906106d3565b60405180910390f35b34801561015357600080fd5b5061015c6103f5565b60405161016991906106b8565b60405180910390f35b61017a610419565b005b34801561018857600080fd5b50610191610539565b60405161019e9190610730565b60405180910390f35b3480156101b357600080fd5b506101bc61053f565b6040516101c991906106f5565b60405180910390f35b8067016345785d8a000081111561021e576040517f08c379a000000000000000000000000000000000000000000000000000000000815260040161021590610710565b60405180910390fd5b3373ffffffffffffffffffffffffffffffffffffffff166108fc839081150290604051600060405180830381858888f19350505050158015610264573d6000803e3d6000fd5b505050565b6000600460008360ff16815260200190815260200160002060009054906101000a900473ffffffffffffffffffffffffffffffffffffffff169050919050565b60025481565b6060600060025467ffffffffffffffff8111156102f5577f4e487b7100000000000000000000000000000000000000000000000000000000600052604160045260246000fd5b6040519080825280602002602001820160405280156103235781602001602082028036833780820191505090505b50905060005b6002548110156103ed576004600082815260200190815260200160002060009054906101000a900473ffffffffffffffffffffffffffffffffffffffff168282815181106103a0577f4e487b7100000000000000000000000000000000000000000000000000000000600052603260045260246000fd5b602002602001019073ffffffffffffffffffffffffffffffffffffffff16908173ffffffffffffffffffffffffffffffffffffffff168152505080806103e5906107e8565b915050610329565b508091505090565b60008054906101000a900473ffffffffffffffffffffffffffffffffffffffff1681565b6000339050600360008273ffffffffffffffffffffffffffffffffffffffff1673ffffffffffffffffffffffffffffffffffffffff16815260200190815260200160002060009054906101000a900460ff1661053657600060026000815480929190610484906107e8565b9190505590506001600360008473ffffffffffffffffffffffffffffffffffffffff1673ffffffffffffffffffffffffffffffffffffffff16815260200190815260200160002060006101000a81548160ff021916908315150217905550816004600083815260200190815260200160002060006101000a81548173ffffffffffffffffffffffffffffffffffffffff021916908373ffffffffffffffffffffffffffffffffffffffff160217905550505b50565b60015481565b60007f48656c6c6f20576f726c64000000000000000000000000000000000000000000905090565b600081359050610576816108af565b92915050565b60008135905061058b816108c6565b92915050565b6000602082840312156105a357600080fd5b60006105b184828501610567565b91505092915050565b6000602082840312156105cc57600080fd5b60006105da8482850161057c565b91505092915050565b60006105ef83836105fb565b60208301905092915050565b61060481610795565b82525050565b61061381610795565b82525050565b60006106248261075b565b61062e8185610773565b93506106398361074b565b8060005b8381101561066a57815161065188826105e3565b975061065c83610766565b92505060018101905061063d565b5085935050505092915050565b610680816107a7565b82525050565b6000610693602283610784565b915061069e82610860565b604082019050919050565b6106b2816107d1565b82525050565b60006020820190506106cd600083018461060a565b92915050565b600060208201905081810360008301526106ed8184610619565b905092915050565b600060208201905061070a6000830184610677565b92915050565b6000602082019050818103600083015261072981610686565b9050919050565b600060208201905061074560008301846106a9565b92915050565b6000819050602082019050919050565b600081519050919050565b6000602082019050919050565b600082825260208201905092915050565b600082825260208201905092915050565b60006107a0826107b1565b9050919050565b6000819050919050565b600073ffffffffffffffffffffffffffffffffffffffff82169050919050565b6000819050919050565b600060ff82169050919050565b60006107f3826107d1565b91507fffffffffffffffffffffffffffffffffffffffffffffffffffffffffffffffff82141561082657610825610831565b5b600182019050919050565b7f4e487b7100000000000000000000000000000000000000000000000000000000600052601160045260246000fd5b7f43616e6e6f74207769746864726177206d6f7265207468616e202e312065746860008201527f6572000000000000000000000000000000000000000000000000000000000000602082015250565b6108b8816107d1565b81146108c357600080fd5b50565b6108cf816107db565b81146108da57600080fd5b5056fea26469706673582212205a960e3d0687206a3e11986aa5bc931392d627e5b7389375f2ed20ce8c2d348d64736f6c63430008040033",
  "immutableReferences": {},
  "source": "// SPDX-License-Identifier: MIT\r\npragma solidity >=0.4.22 <0.9.0; \r\n\r\nimport \"./Owned.sol\";\r\nimport \"./Logger.sol\";\r\nimport \"./IFaucet.sol\";\r\n\r\ncontract Faucet is Owned, Logger, IFaucet {\r\n   uint public numOfDonators;\r\n   // create mapping to store addresses of donators\r\n   // key => value\r\n   mapping(address => bool) private donators;\r\n   mapping(uint => address) private lutDonators;\r\n\r\n   // this modifier limits amount that is able to be withdrawn every tx (.1 eth)\r\n   modifier limitWithdraw(uint withdrawAmount) {\r\n      require(\r\n         withdrawAmount <= 100000000000000000,\r\n         \"Cannot withdraw more than .1 ether\"\r\n      );\r\n      _;\r\n   }\r\n\r\n   // allows the contract to receive ether\r\n   receive() external payable {}\r\n\r\n   function emitLog() public override pure returns(bytes32) {\r\n      return \"Hello World\";\r\n   }\r\n\r\n   // this function allows funds to be sent to the smart contract\r\n   function addFunds() override external payable {\r\n      // create mapping of donator's address\r\n      address donator = msg.sender;\r\n      if (!donators[donator]) {\r\n         uint index = numOfDonators++;\r\n         donators[donator] = true; \r\n         lutDonators[index] = donator;\r\n      }\r\n   }\r\n\r\n   // this function withdraws from the smart contract with a limit of .1 eth per transaction\r\n   function withdraw(uint withdrawAmount) external override limitWithdraw(withdrawAmount) {\r\n         payable(msg.sender).transfer(withdrawAmount);\r\n   }\r\n\r\n   // this function returns an array of all donator's addresses\r\n   function getAllDonators() external view returns (address [] memory) {\r\n      // create new array to store addresses\r\n      address[] memory _donators = new address[](numOfDonators);\r\n      // loop through our keys and values, store addresses (values) in array\r\n      for (uint i =0; i < numOfDonators; i++) {\r\n         _donators[i] = lutDonators[i];\r\n      }\r\n      return _donators;\r\n   }   \r\n\r\n   // returns the donator's address at a specified index\r\n   function getDonatorAtIndex(uint8 index) external view returns (address) {\r\n         return lutDonators[index];\r\n   }  \r\n}\r\n\r\n",
  "sourcePath": "C:\\Users\\rodri\\Solidity\\solidity\\faucet\\contracts\\FaucetContract.sol",
  "compiler": {
    "name": "solc",
    "version": "0.8.4+commit.c7e474f2.Emscripten.clang"
  },
  "schemaVersion": "3.4.3",
  "updatedAt": "2022-02-18T04:20:22.087Z",
  "devdoc": {
    "kind": "dev",
    "methods": {},
    "version": 1
  },
  "userdoc": {
    "kind": "user",
    "methods": {},
    "version": 1
  }
}